:020000040800F2
:100000006006002099010008310300082903000858
:100010002D030008550200086904000800000000D4
:100020000000000000000000000000005103000874
:1000300059020008000000003503000855030008BD
:10004000B3010008B3010008B3010008B3010008C0
:10005000B3010008B3010008B3010008B3010008B0
:10006000B3010008B3010008B3010008B3010008A0
:10007000B3010008B3010008B3010008B301000890
:10008000B3010008B3010008B3010008B301000880
:10009000B3010008B3010008B3010008B301000870
:1000A000B3010008B3010008B3010008B301000860
:1000B000B3010008B3010008B3010008B301000850
:1000C000B3010008B3010008B3010008B301000840
:1000D000B3010008B3010008B3010008B301000830
:1000E000B3010008B3010008B301000800F002F8F2
:1000F00000F042F814A696E8000CB244B344DA4586
:1001000001D100F039F8BAE80F000FA696E83000E8
:10011000A5EB040504EB0607AAEB0704A7F101070A
:100120004FEA15154FEA3414A4F10104AC4201D38F
:1001300000F022F813F0010F18BFFB1A43F001037F
:1001400000F001F8DBE718475403000064030000E7
:10015000704700000023002400250026103A28BF25
:1001600078C1FBD8520728BF30C148BF0B60704729
:100170001FB51FBD10B510BD00F031F81146FFF7D7
:10018000F7FF00F073F900F04FF803B4FFF7F2FF48
:1001900003BC00F057F800000948804709480047B1
:1001A000FEE7FEE7FEE7FEE7FEE7FEE7FEE7FEE727
:1001B000FEE7FEE704480549054A064B7047000084
:1001C00059030008ED0000086000002060060020D0
:1001D000600200206002002070477047704775463B
:1001E00000F02CF8AE4605006946534620F00700A3
:1001F000854618B020B5FFF7DDFFBDE820404FF081
:1002000000064FF000074FF000084FF0000BAC461F
:10021000ACE8C009ACE8C009ACE8C009ACE8C0096A
:1002200021F007018D46704710B50446AFF30080FA
:100230002046BDE81040FFF7A8BF00000048704707
:100240000000002001491820ABBEFEE72600020096
:1002500070470000FEE7000070470000CA7802F017
:100260000F0CD30644BF8B784CEA030C2DE9F04702
:1002700009880B0625D082465AF8144B00F1100E5F
:1002800000254FF001094FF00F08002706E000BFDE
:100290001E600137082F05F1040511D009FA07F691
:1002A0000E42F6D008FA05F324EA03030CFA05F42B
:1002B0001C43282A5346EBD0482AEAD17346E7E785
:1002C0000460B1F5807F38BFBDE8F087436800F176
:1002D000100E00F1140900254FF4807A4FF00F083A
:1002E000002705E034600137082F05F1040512D01E
:1002F0000AFA07F404EA0106A642F4D108FA05F660
:10030000B3430CFA05F63343282A4E46EAD0482A6E
:10031000E9D17646E6E74360BDE8F0871023002A7E
:1003200008BF1423C1507047FEE70000FEE700003D
:100330007047000070470000002941F21801C4F224
:1003400002010A680CBF22EA0000104308607047EF
:10035000704700007047000082B041F20400C4F210
:10036000020050F8041C002241F0010140F8041C76
:100370000168CFF6FF021140016050F8041C4FF6EF
:10038000FF72CFF6F662114040F8041C50F8041CCE
:1003900021F4802140F8041C016821F4FE01016071
:1003A0004FF41F01416000210191009150F8041C9D
:1003B00041F4803140F8041C50F8041C01F4003171
:1003C0000091019901310191009919B90199B1F593
:1003D000A06FF1D150F8041C890354BF0021012102
:1003E00000910099012936D142F20001C4F20201C4
:1003F0000A6842F010020A600A6822F003020A60EA
:100400000A6842F002020A60016801600168016046
:10041000016841F480610160016821F47C11016090
:10042000016841F4E811016050F8041C41F080714A
:1004300040F8041C50F8041C8901FBD5016821F028
:1004400003010160016841F002010160016801F0EF
:100450000C010829FAD14EF60850CEF200004FF0F8
:100460000061016002B07047FEE7000082B0042026
:100470000121FFF761FF012040F60004C1F20300F3
:10048000C4F20104019001A92046FFF7E7FE2046CF
:1004900001210122FFF742FFFEE70000AC04000843
:0C04A0000000002060060000540100086D
:04000005080000ED02
:00000001FF
